:020000040800F2
:10000000000002200918000819170008211700082D
:1000100029170008311700083917000800000000F0
:100020000000000000000000000000004117000870
:100030004F170008000000005D1700086B1700084C
:1000400059180008591800085918000859180008CC
:1000500059180008591800085918000859180008BC
:1000600059180008591800085918000859180008AC
:10007000591800085918000859180008591800089C
:100080005918000859180008591800080000000005
:1000900000000000000000000000000059180008E7
:1000A000591800085918000859180008591800086C
:1000B000591800085918000859180008591800085C
:1000C000591800085918000859180008591800084C
:1000D00059180008591800085918000800000000B5
:1000E00059180008591800085918000800000000A5
:1000F0000000000000000000000000005918000887
:100100000000000059180008591800085918000884
:1001100000000000000000000000000000000000DF
:1001200059180008591800085918000859180008EB
:100130005918000800000000000000000000000046
:100140000000000000000000000000005918000836
:1001500059180008591800085918000859180008BB
:10016000591800085918000800000000000000009D
:10017000000000000000000000000000000000007F
:1001800000000000591800080000000000000000F6
:08019000591800085918000875
:1001A00010B5054C237833B9044B13B10448AFF3B1
:1001B00000800123237010BD6000002000000000BB
:1001C0000043000808B5034B1BB103490348AFF3D4
:1001D000008008BD0000000064000020004300080B
:1001E00001F0FF01102A2BDB10F0070F08D010F8E8
:1001F000013B013A8B422DD010F0070F42B3F6D1EC
:10020000F0B441EA012141EA014122F007047FF004
:1002100000070023F0E80256083C85EA010586EA5B
:10022000010685FA47F5A3FA87F586FA47F6A5FA97
:1002300087F68EB9EED1F0BC01F0FF0102F00702A3
:1002400032B110F8013B013A83EA010313B1F8D14E
:100250000020704701387047002D06BF354603382F
:10026000073815F0010F07D1013015F4807F02BF68
:10027000013015F4C03F0130F0BC0138704700BFB9
:1002800081F0004102E000BF83F0004330B54FEA47
:1002900041044FEA430594EA050F08BF90EA020FB4
:1002A0001FBF54EA000C55EA020C7FEA645C7FEA47
:1002B000655C00F0E2804FEA5454D4EB5555B8BF6A
:1002C0006D420CDD2C4480EA020281EA030382EADB
:1002D000000083EA010180EA020281EA0303362D6D
:1002E00088BF30BD11F0004F4FEA01314FF4801C40
:1002F0004CEA113102D0404261EB410113F0004F52
:100300004FEA03334CEA133302D0524263EB430308
:1003100094EA050F00F0A780A4F10104D5F1200EA6
:100320000DDB02FA0EFC22FA05F2801841F1000101
:1003300003FA0EF2801843FA05F359410EE0A5F1D5
:1003400020050EF1200E012A03FA0EFC28BF4CF006
:10035000020C43FA05F3C01851EBE37101F00045BC
:1003600007D54FF0000EDCF1000C7EEB00006EEBC9
:100370000101B1F5801F1BD3B1F5001F0CD3490853
:100380005FEA30004FEA3C0C04F101044FEA4452AA
:1003900012F5800F80F09A80BCF1004F08BF5FEA31
:1003A000500C50F1000041EB045141EA050130BD11
:1003B0005FEA4C0C404141EB0101013C28BFB1F523
:1003C000801FE9D291F0000F04BF01460020B1FA6E
:1003D00081F308BF2033A3F10B03B3F120020CDA41
:1003E0000C3208DD02F1140CC2F10C0201FA0CF01F
:1003F00021FA02F10CE002F11402D8BFC2F1200C84
:1004000001FA02F120FA0CFCDCBF41EA0C01904039
:10041000E41AA2BF01EB0451294330BD6FEA040482
:100420001F3C1CDA0C340EDC04F11404C4F120026D
:1004300020FA04F001FA02F340EA030021FA04F37F
:1004400045EA030130BDC4F10C04C4F1200220FAD6
:1004500002F001FA04F340EA0300294630BD21FA14
:1004600004F0294630BD94F0000F83F4801306BFDA
:1004700081F480110134013D4EE77FEA645C18BFCE
:100480007FEA655C29D094EA050F08BF90EA020F65
:1004900005D054EA000C04BF1946104630BD91EA5D
:1004A000030F1EBF0021002030BD5FEA545C05D160
:1004B0004000494128BF41F0004130BD14F580049F
:1004C0003CBF01F5801130BD01F0004545F0FE4113
:1004D00041F470014FF0000030BD7FEA645C1ABF48
:1004E000194610467FEA655C1CBF0B46024650EA7F
:1004F000013406BF52EA033591EA030F41F40021AB
:1005000030BD00BF90F0000F04BF0021704730B530
:100510004FF4806404F132044FF000054FF0000105
:1005200050E700BF90F0000F04BF0021704730B5C6
:100530004FF4806404F1320410F0004548BF40429B
:100540004FF000013EE700BF42004FEAE2014FEAF0
:1005500031014FEA02701FBF12F07F4393F07F4FCB
:1005600081F06051704732F07F4208BF704793F0CE
:100570007F4F04BF41F40021704730B54FF46074E1
:1005800001F0004521F000411CE700BF50EA0102E4
:1005900008BF704730B54FF000050AE050EA01028D
:1005A00008BF704730B511F0004502D5404261EBFD
:1005B00041014FF4806404F132045FEA915C3FF43E
:1005C000D8AE4FF003025FEADC0C18BF03325FEADB
:1005D000DC0C18BF033202EBDC02C2F1200300FA8C
:1005E00003FC20FA02F001FA03FE40EA0E0021FAB1
:1005F00002F11444BDE600BF70B54FF0FF0C4CF49F
:10060000E06C1CEA11541DBF1CEA135594EA0C0F50
:1006100095EA0C0F00F0DEF82C4481EA030621EA8B
:100620004C5123EA4C5350EA013518BF52EA0335C6
:1006300041F4801143F4801338D0A0FB02CE4FF078
:100640000005E1FB02E506F00042E0FB03E54FF0A8
:100650000006E1FB03569CF0000F18BF4EF0010EA0
:10066000A4F1FF04B6F5007F64F5407404D25FEA9C
:100670004E0E6D4146EB060642EAC62141EA55514F
:100680004FEAC52040EA5E504FEACE2EB4F1FD0C91
:1006900088BFBCF5E06F1ED8BEF1004F08BF5FEA0F
:1006A000500E50F1000041EB045170BD06F00046C1
:1006B00046EA010140EA020081EA0301B4EB5C046E
:1006C000C2BFD4EB0C0541EA045170BD41F4801166
:1006D0004FF0000E013C00F3AB8014F1360FDEBF8B
:1006E000002001F0004170BDC4F10004203C35DA67
:1006F0000C341BDC04F11404C4F1200500FA05F3EA
:1007000020FA04F001FA05F240EA020001F000428A
:1007100021F0004110EBD37021FA04F642EB060100
:100720005EEA430E08BF20EAD37070BDC4F10C042A
:10073000C4F1200500FA04F320FA05F001FA04F2EE
:1007400040EA020001F0004110EBD37041F10001DA
:100750005EEA430E08BF20EAD37070BDC4F12005E5
:1007600000FA05F24EEA020E20FA04F301FA05F24D
:1007700043EA020321FA04F001F0004121FA04F2F5
:1007800020EA020000EBD3705EEA430E08BF20EAC5
:10079000D37070BD94F0000F0FD101F000464000FF
:1007A00041EB010111F4801F08BF013CF7D041EA81
:1007B000060195F0000F18BF704703F00046520085
:1007C00043EB030313F4801F08BF013DF7D043EA56
:1007D0000603704794EA0C0F0CEA135518BF95EA0C
:1007E0000C0F0CD050EA410618BF52EA4306D1D193
:1007F00081EA030101F000414FF0000070BD50EAB2
:10080000410606BF1046194652EA430619D094EA3B
:100810000C0F02D150EA013613D195EA0C0F05D125
:1008200052EA03361CBF104619460AD181EA030179
:1008300001F0004141F0FE4141F470014FF0000031
:1008400070BD41F0FE4141F4780170BD70B54FF0CC
:10085000FF0C4CF4E06C1CEA11541DBF1CEA13554C
:1008600094EA0C0F95EA0C0F00F0A7F8A4EB05042E
:1008700081EA030E52EA03354FEA013100F0888025
:100880004FEA03334FF0805545EA131343EA1263EE
:100890004FEA022245EA111545EA10654FEA0026A3
:1008A0000EF000419D4208BF964244F1FD0404F55C
:1008B000407402D25B084FEA3202B61A65EB0305B8
:1008C0005B084FEA32024FF480104FF4002CB6EB75
:1008D000020E75EB030E22BFB61A754640EA0C00F5
:1008E0005B084FEA3202B6EB020E75EB030E22BF35
:1008F000B61A754640EA5C005B084FEA3202B6EB76
:10090000020E75EB030E22BFB61A754640EA9C0034
:100910005B084FEA3202B6EB020E75EB030E22BF04
:10092000B61A754640EADC0055EA060E18D04FEAC2
:10093000051545EA16754FEA06164FEAC30343EA62
:1009400052734FEAC2025FEA1C1CC0D111F4801F2F
:100950000BD141EA00014FF000004FF0004CB6E728
:1009600011F4801F04BF01430020B4F1FD0C88BFC7
:10097000BCF5E06F3FF6AFAEB5EB030C04BFB6EBD2
:10098000020C5FEA500C50F1000041EB045170BDC5
:100990000EF0004E4EEA113114EB5C04C2BFD4EBF2
:1009A0000C0541EA045170BD41F480114FF0000E76
:1009B000013C90E645EA060E8DE60CEA135594EAF2
:1009C0000C0F08BF95EA0C0F3FF43BAF94EA0C0FF5
:1009D0000AD150EA01347FF434AF95EA0C0F7FF46A
:1009E00025AF104619462CE795EA0C0F06D152EABE
:1009F00003353FF4FDAE1046194622E750EA4106A2
:100A000018BF52EA43067FF4C5AE50EA41047FF4B2
:100A10000DAF52EA43057FF4EBAE12E74FEA410215
:100A2000B2F1E04324BFB3F5001CDCF1FE5C0DD94C
:100A300001F0004C4FEAC0024CEA5070B2F1004F96
:100A400040EB830008BF20F00100704711F0804F99
:100A500021D113F13872BCBF01F00040704741F45E
:100A600080114FEA5252C2F11802C2F1200C10FA62
:100A70000CF320FA02F018BF40F001004FEAC12346
:100A80004FEAD32303FA0CFC40EA0C0023FA02F3EA
:100A90004FEA4303CCE77FEA625307D150EA0133C0
:100AA0001EBF4FF0FE4040F44000704701F0004090
:100AB00040F0FE4040F40000704700BF53B94AB90F
:100AC000002908BF00281CBF4FF0FF314FF0FF3056
:100AD00000F088B9ADF1080C6DE904CE00F006F81D
:100AE000DDF804E0DDE9022304B070472DE9F047AA
:100AF000089D8E4604468846002B4AD18A421746F6
:100B000062D9B2FA82F64EB1C6F1200301FA06F8B4
:100B100020FA03F3B74043EA0808B4404FEA174EFF
:100B20001FFA87FCB8FBFEF1230C0EFB118843EA89
:100B3000084301FB0CF29A4209D9FB1801F1FF307E
:100B400080F0EA809A4240F2E78002393B449A1AE8
:100B5000A3B2B2FBFEF00EFB102243EA024300FBFD
:100B60000CFC9C4509D9FB1800F1FF3280F0D680BF
:100B70009C4540F2D3803B44023840EA0140A3EB5D
:100B80000C0300211DB1F3400022C5E90032BDE88D
:100B9000F0878B4205D90DB1C5E900010021084657
:100BA000F5E7B3FA83F1002946D1734502D38242B7
:100BB00000F20581841A6EEB030201209046002D9D
:100BC000E5D0C5E90048E2E7002A00F09080B2FADB
:100BD00082F6002E40F0A4808A1A030C4FEA174ECA
:100BE00080B2BCB20121B2FBFEFC0EFB1C2243EA28
:100BF000024304FB0CF29A4207D9FB180CF1FF38B0
:100C000002D29A4200F2E080C4469B1AB3FBFEF285
:100C10000EFB123340EA034302FB04F49C4207D963
:100C2000FB1802F1FF3002D29C4200F2CA80024659
:100C30001B1B42EA0C40A5E7C1F120068B4022FABB
:100C400006F71F430EFA01F420FA06F32EFA06FE09
:100C50004FEA1749234300FA01F81FFA87FCBEFB4D
:100C6000F9F01C0C09FB10EE44EA0E4400FB0CFEEC
:100C7000A64502FA01F209D93C1900F1FF3A80F0C9
:100C80009C80A64540F2998002383C44A4EB0E04B7
:100C90001FFA83FEB4FBF9F309FB13444EEA044444
:100CA00003FB0CFCA44508D93C1903F1FF3E80F07E
:100CB0008280A4457FD9023B3C4443EA0040A4EB38
:100CC0000C04A0FB02EC64457346E14662D35FD09E
:100CD0005DB1B8EB030264EB090404FA06F622FAEC
:100CE00001F31E43CC40C5E9006400214FE7B1FB8E
:100CF000F2FC010C41EA0E4180B240EA01423B465F
:100D000038463C46B846BE462026B1FBF7F1A2EB7A
:100D1000080241EA0C4166E7014618E710462CE755
:100D2000C6F120022EFA02F3B740B14020FA02F2D7
:100D30004FEA174E0A43B3FBFEF8BCB20EFB183362
:100D4000110C41EA034108FB04F9B04089454FEA20
:100D5000104380B23ED9791808F1FF3C01D2894591
:100D60001FD8A1EB0901B1FBFEF909FB04F80EFB4A
:100D7000191192B242EA0142424529D2BA1809F148
:100D8000FF31C4D24245C2D2A9F102013A44BEE7C2
:100D9000F0459DD2BEEB02036CEB070C0138E14637
:100DA00096E7A7EB09094944A8F1020CB1FBFEF94B
:100DB00009FB04F8DBE773467FE7504666E7084621
:100DC000FDE63B44023A33E7ACF1020C3B441CE73E
:100DD00049469CE7A1EB0901C446B1FBFEF909FBBA
:100DE00004F8C4E7704700BF80B485B000AF0A4B79
:100DF00000221A60094B00221A60094B00221A6077
:100E0000084B00221A60084B00221A7000BF1437EA
:100E1000BD465DF8047B70477C0000208000002008
:100E200084000020880000208C00002080B483B063
:100E300000AF78600B46FB701346BB70FB78002B4D
:100E400011D07B681B78002B06D17B6801221A70B9
:100E50007B6800225A8013E07B685B8801339AB27A
:100E60007B685A800CE07B681B78002B08D07B687D
:100E700000221A707B685B88182B01D8BB7800E0D1
:100E8000002318460C37BD465DF8047B7047000010
:100E900080B582B000AF2B4B00221A70012000F009
:100EA00089F90346FB71022000F084F90346BB7107
:100EB000032000F07FF903467B71042000F07AF9EB
:100EC00003463B71FB79012219461F48FFF7AEFF2D
:100ED0000346FB70FB78002B03D01A4AFB78137093
:100EE0002CE0BB79022219461848FFF79FFF034602
:100EF000FB70FB78002B03D0124AFB7813701DE0C7
:100F00007B79032219461248FFF790FF0346FB70D6
:100F1000FB78002B03D00B4AFB7813700EE03B7973
:100F2000042219460B48FFF781FF0346FB70FB784C
:100F3000002B03D0034AFB78137000BF0837BD466F
:100F400080BD00BF8C0000207C00002080000020BD
:100F5000840000208800002080B483B000AF064BDE
:100F60001B78FB71044B00221A70FB7918460C3772
:100F7000BD465DF8047B70478C00002080B400AF54
:100F8000034B00221A7000BFBD465DF8047B70471A
:100F90008D00002080B582B000AFFFF7DDFF034673
:100FA000FB71414B1B78022B51D0022B78DC002BBC
:100FB00002D0012B09D073E0FB79012B6FD13A4BA2
:100FC00001221A7000F044F969E0FB79012B08D185
:100FD000364B00221A7000F03BF9334B00221A7096
:100FE0005EE0FB79022B08D12F4B02221A70304BA6
:100FF0001B68184600F0BAF852E000F04DF9F0EE28
:10100000407AFDEEE77A17EE902A2A4B1A60284BB9
:101010001B685A1C274B1B689A4203DA234B012298
:101020001A7009E0224B1B685A1E224B1B689A4219
:1010300002DD1E4B00221A701E4B1B68184600F082
:101040005BF81A4B1B78184600F070F828E0FB7923
:10105000022B05D100F0FCF8134B01221A701FE09F
:10106000FB79032B09D1124B1B683B2B05DC104B82
:101070001B6801330E4A13600BE0FB79042B08D187
:101080000B4B1B68002B04DD094B1B68013B084A16
:101090001360074B1B68184600F068F800E000BFBB
:1010A00000BF0837BD4680BD8D00002094000020A1
:1010B000000000209000002080B500AF00F0C2F8D2
:1010C00000F002F800BF80BD80B500AF00F0C0F8AE
:1010D0000021002000F0C2F8054800F0D1F80021FE
:1010E000012000F0BBF8034800F0CAF800BF80BD43
:1010F000184300082443000880B586B000AF78602C
:101100000021002000F0AAF807F108007B68064AD9
:10111000102102F041FC07F10803184600F0B0F876
:1011200000BF1837BD4680BD3443000880B582B08B
:1011300000AF0346FB710021012000F08FF8084842
:1011400000F09EF8FB79002B01D0064B00E0064B27
:10115000184600F095F800BF0837BD4680BD00BFB7
:1011600040430008484300084C43000880B586B05F
:1011700000AF78600021002000F070F807F108004F
:101180007B680A4A102102F007FC07F108031846A1
:1011900000F076F80021012000F060F8044800F02B
:1011A0006FF800BF1837BD4680BD00BF5043000830
:1011B0006043000880B582B000AF0346FB71FB7945
:1011C000013B032B36D801A252F823F0DD110008B1
:1011D000F3110008091200081F1200080221184824
:1011E00001F0E0FA0346002B0CBF01230023DBB221
:1011F00021E00421124801F0D5FA0346002B0CBF70
:1012000001230023DBB216E008210D4801F0CAFAE1
:101210000346002B0CBF01230023DBB20BE010219F
:10122000074801F0BFFA0346002B0CBF012300233F
:10123000DBB200E0002318460837BD4680BD00BF82
:101240000000024080B500AF00F074FB00BF80BD1D
:1012500080B500AF00F0ABFB00BF80BD80B582B0B1
:1012600000AF03460A46FB711346BB71BA79FB799E
:101270001146184600F0A5FB00BF0837BD4680BDEB
:1012800080B582B000AF7860786800F0B8FB00BF2E
:101290000837BD4680BD000080B582B000AF204851
:1012A00000F09CFC4FF0FF311D4800F04BFD1C4846
:1012B00000F0D3FD78607868FFF724F914A3D3E930
:1012C0000023FFF799F902460B461046194612A370
:1012D000D3E90023FFF7BAFA02460B461046194637
:1012E0004FF000020F4BFFF787F902460B461046FE
:1012F0001946FFF793FB03463B603B6807EE903AC5
:10130000B0EE670A0837BD4680BD00BFAFF300806E
:101310006666666666660A400000000000FEAF4032
:10132000980000200000594080B584B000AF3B46D3
:1013300000221A605A609A60DA60214B214A1A60D2
:101340001F4B00225A601E4B00229A601C4B002249
:101350001A611B4B00221A76194B002283F82020B9
:10136000174B0022DA62164B174A9A62144B00227E
:10137000DA60134B0122DA61114B002283F830202E
:101380000F4B01225A610E4800F0E4FB0346002B8C
:1013900001D000F093F900233B6001237B60002320
:1013A000BB603B461946064800F064FD0346002B2F
:1013B00001D000F083F900BF1037BD4680BD00BFEB
:1013C00098000020002001400100000F80B58AB085
:1013D00000AF786007F1140300221A605A609A6027
:1013E000DA601A617B681B68174A934227D1002391
:1013F0003B61164B5B6C154A43F480735364134B8B
:101400005B6C03F480733B613B690023FB600F4B13
:101410001B6B0E4A43F0010313630C4B1B6B03F071
:101420000103FB60FB6801237B610323BB61002395
:10143000FB6107F114031946054801F02FF800BFBE
:101440002837BD4680BD00BF002001400038024063
:101450000000024080B588B000AF07F10C03002205
:101460001A605A609A60DA601A610023BB60154BFB
:101470001B6B144A43F001031363124B1B6B03F005
:101480000103BB60BB6800237B600E4B1B6B0D4AE6
:1014900043F0020313630B4B1B6B03F002037B60EF
:1014A0007B681E23FB6000233B6101237B6107F106
:1014B0000C031946044800F0F1FF00BF2037BD4679
:1014C00080BD00BF003802400000024080B500AF80
:1014D000124B134A1A60114B124A5A600F4B0022EA
:1014E0009A600E4B0022DA600C4B4FF480421A6176
:1014F0000A4B00225A61094B00229A61074B0022D5
:10150000DA61064B00221A62044801F063F90346CF
:10151000002B01D000F0D2F800BF80BDE000002019
:1015200000540040A086010080B58AB000AF78600A
:1015300007F1140300221A605A609A60DA601A6197
:101540007B681B68194A93422BD100233B61184BDF
:101550001B6B174A43F002031363154B1B6B03F01D
:1015600002033B613B69C0237B611223BB61002303
:10157000FB6103233B6204237B6207F114031946DA
:101580000C4800F08BFF0023FB60094B1B6C084AE2
:1015900043F400131364064B1B6C03F40013FB604D
:1015A000FB6800BF2837BD4680BD00BF0054004027
:1015B000003802400004024080B582B000AF00F065
:1015C00033FA00F01DF8FFF745FFFFF77FFFFFF745
:1015D000ABFEFFF709FCFFF76FFDFFF7CFFC002321
:1015E0007B6000F087FA38603A687B68D31A132B67
:1015F000F7D93B687B60FFF74BFCFFF7CBFCF0E7CC
:1016000080B594B000AF07F12003302200211846C6
:1016100002F0F8F907F10C0300221A605A609A6090
:10162000DA601A610023BB60224B1B6C214A43F035
:10163000805313641F4B1B6C03F08053BB60BB686B
:1016400000237B601C4B1B681B4A43F44043136020
:10165000194B1B6803F440437B607B6802233B62A9
:101660000123FB6210233B630023BB6307F12003CC
:10167000184601F04DFD0346002B01D000F01EF886
:101680000F23FB6000233B6100237B610023BB61D0
:101690000023FB6107F10C030021184601F0B0FFA5
:1016A0000346002B01D000F009F800BF5037BD46BB
:1016B00080BD00BF003802400070004080B400AF21
:1016C00072B600BF00BFFDE780B483B000AF002357
:1016D0007B60104B5B6C0F4A43F4804353640D4BAB
:1016E0005B6C03F480437B607B6800233B60094BA9
:1016F0001B6C084A43F080531364064B1B6C03F0C9
:1017000080533B603B6800BF0C37BD465DF8047BEF
:10171000704700BF0038024080B400AF00BFFDE753
:1017200080B400AF00BFFDE780B400AF00BFFDE7AD
:1017300080B400AF00BFFDE780B400AF00BFFDE79D
:1017400080B400AF00BFBD465DF8047B704780B435
:1017500000AF00BFBD465DF8047B704780B400AFAA
:1017600000BFBD465DF8047B704780B500AF00F058
:10177000ADF900BF80BD000080B586B000AF7860D5
:10178000144A154BD31A7B617B693B61134B1B6871
:10179000002B02D1114B124A1A60104B1A687B6859
:1017A00013443A699A4207D202F034F903460C22F4
:1017B0001A604FF0FF3309E0084B1B68FB60074BD2
:1017C0001A687B681344054A1360FB68184618378B
:1017D000BD4680BD0000022000040000340100204E
:1017E0008802002080B400AF064BD3F88830054A49
:1017F00043F47003C2F8883000BFBD465DF8047B37
:10180000704700BF00ED00E0DFF834D0FFF7EAFFDB
:101810000C480D490D4A002302E0D458C45004334B
:10182000C4188C42F9D30A4A0A4C002301E0136021
:101830000432A242FBD302F0F3F8FFF7BDFE70477B
:10184000000002200000002060000020CC430008BF
:101850006000002084020020FEE7000080B586B012
:1018600002AF0346FB71FB7923F00F03FB73FB7997
:101870001B01BB73FB7B43F00D03DBB23B72FB7BB5
:1018800043F00903DBB27B72BB7B43F00D03DBB299
:10189000BB72BB7B43F00903DBB2FB7207F10802AA
:1018A0004FF0FF33009304234E21064801F0D6F891
:1018B0000346002B01D0012300E000231846103717
:1018C000BD4680BDE000002080B586B002AF034673
:1018D000FB71FB7923F00F03FB73FB791B01BB73D7
:1018E000FB7B43F00C03DBB23B72FB7B43F0080352
:1018F000DBB27B72BB7B43F00C03DBB2BB72BB7B06
:1019000043F00803DBB2FB7207F108024FF0FF332C
:10191000009304234E21064801F0A0F80346002B53
:1019200001D0012300E0002318461037BD4680BDDA
:10193000E000002080B500AF322000F0E7F8302052
:10194000FFF7C2FF052000F0E1F83020FFF7BCFFF1
:10195000012000F0DBF83020FFF7B6FF0A2000F08E
:10196000D5F82020FFF7B0FF0A2000F0CFF828209C
:10197000FFF7AAFF012000F0C9F80820FFF7A4FF35
:10198000012000F0C3F80120FFF79EFF022000F0C5
:10199000BDF80620FFF798FF012000F0B7F80C20F3
:1019A000FFF792FF012000F0B1F800BF80BD80B5C5
:1019B00000AF0120FFF788FF322000F0A7F800BF3A
:1019C00080BD80B582B000AF03460A46FB71134666
:1019D000BB71FB79002B03D1BB7963F07F03BB7133
:1019E000FB79012B03D1BB7963F03F03BB71BB795A
:1019F0001846FFF769FF00BF0837BD4680BD80B5B8
:101A000082B000AF786006E07B685A1C7A601B7871
:101A10001846FFF723FF7B681B78002BF4D100BF2B
:101A200000BF0837BD4680BD80B500AF0E4B1B68B8
:101A30000D4A43F4007313600B4B1B680A4A43F4CE
:101A400080631360084B1B68074A43F4807313607C
:101A5000032000F0EFFC0F2000F008F8FFF734FE41
:101A60000023184680BD00BF003C024080B582B014
:101A700000AF7860124B1A68124B1B7819464FF46E
:101A80007A73B3FBF1F3B2FBF3F3184600F0F9FC01
:101A90000346002B01D001230EE07B680F2B0AD8F0
:101AA000002279684FF0FF3000F0CFFC064A7B68D7
:101AB0001360002300E0012318460837BD4680BDAF
:101AC000040000200C0000200800002080B400AFBB
:101AD000064B1B781A46064B1B681344044A1360D6
:101AE00000BFBD465DF8047B704700BF0C000020BE
:101AF0003801002080B400AF034B1B681846BD4678
:101B00005DF8047B704700BF3801002080B584B0C9
:101B100000AF7860FFF7EEFFB8607B68FB60FB68A2
:101B2000B3F1FF3F05D00A4B1B781A46FB681344FC
:101B3000FB6000BFFFF7DEFF0246BB68D31AFA68FE
:101B40009A42F7D800BF00BF1037BD4680BD00BF26
:101B50000C00002080B584B000AF78600023FB73D8
:101B60007B68002B01D1012333E07B681B6C002BC9
:101B700009D17868FFF72AFC7B6800225A647B68E9
:101B8000002283F83C207B681B6C03F01003002BC1
:101B900018D17B681B6C23F4885323F0020343F0B5
:101BA00002027B681A64786800F096FA7B6800226B
:101BB0005A647B681B6C23F0030343F001027B68CB
:101BC0001A6401E00123FB737B68002283F83C2048
:101BD000FB7B18461037BD4680BD000080B485B041
:101BE00000AF78600023BB607B6893F83C30012B2A
:101BF00001D1022397E07B68012283F83C207B68B7
:101C00001B689B6803F00103012B18D07B681B68DD
:101C10009A687B681B6842F001029A60454B1B681A
:101C2000454AA2FB03239A0C13465B001344BB6096
:101C300002E0BB68013BBB60BB68002BF9D17B684D
:101C40001B689B6803F00103012B5FD17B681B6C51
:101C500023F4E06323F0010343F480727B681A6489
:101C60007B681B685B6803F48063002B07D07B688C
:101C70001B6C23F4405343F480527B681A647B68E6
:101C80001B6C03F48053B3F5805F06D17B685B6CFB
:101C900023F006027B685A6402E07B6800225A64E3
:101CA0007B68002283F83C20244BFB607B681B6828
:101CB0006FF022021A60FB685B6803F01F03002BC1
:101CC0000FD17B681B689B6803F04053002B29D120
:101CD0007B681B689A687B681B6842F080429A6048
:101CE00020E07B681B68164A93421BD17B681B6807
:101CF0009B6803F04053002B14D17B681B689A68E3
:101D00007B681B6842F080429A600BE07B681B6C2A
:101D100043F010027B681A647B685B6C43F001023D
:101D20007B685A64002318461437BD465DF8047B6F
:101D3000704700BF0400002083DE1B4300230140E6
:101D40000020014080B584B000AF78603960002386
:101D5000FB607B681B689B6803F48063B3F5806F4E
:101D600013D17B681B689B6803F48073B3F5807F95
:101D70000BD17B681B6C43F020027B681A647B6884
:101D8000002283F83C20012363E0FFF7B3FEF860F4
:101D900021E03B68B3F1FF3F1DD03B68002B07D02B
:101DA000FFF7A8FE0246FB68D31A3A689A4212D29D
:101DB0007B681B681B6803F00203022B0BD07B6857
:101DC0001B6C43F004027B681A647B68002283F872
:101DD0003C2003233DE07B681B681B6803F0020383
:101DE000022BD6D17B681B686FF012021A607B68E9
:101DF0001B6C43F400727B681A647B681B689B68E9
:101E000003F04053002B23D17B681B7E002B1FD196
:101E10007B681B68DB6A03F47003002B06D07B68C9
:101E20001B689B6803F48063002B11D17B681B6CDB
:101E300023F480727B681A647B681B6C03F4805304
:101E4000002B05D17B681B6C43F001027B681A6490
:101E5000002318461037BD4680BD80B483B000AF64
:101E600078607B681B68DB6C18460C37BD465DF8F4
:101E7000047B704780B485B000AF78603960002380
:101E8000BB607B6893F83C30012B01D1022313E146
:101E90007B68012283F83C203B681B68092B25D90D
:101EA0007B681B68D9683B681B689BB21A4613465F
:101EB0005B0013441E3B072202FA03F3DA437B68FC
:101EC0001B680A40DA607B681B68D9683B689A68BF
:101ED0003B681B689BB2184603465B0003441E3BED
:101EE0009A407B681B680A43DA6022E07B681B68C3
:101EF00019693B681B689BB21A4613465B00134482
:101F0000072202FA03F3DA437B681B680A401A616E
:101F10007B681B6819693B689A683B681B689BB2C1
:101F2000184603465B0003449A407B681B680A43DB
:101F30001A613B685B68062B24D87B681B68596B69
:101F40003B685A6813469B001344053B1F2202FA64
:101F500003F3DA437B681B680A405A637B681B689B
:101F6000596B3B681B689BB218463B685A6813461E
:101F70009B001344053B00FA03F27B681B680A438D
:101F80005A634CE03B685B680C2B24D87B681B6869
:101F9000196B3B685A6813469B001344233B1F226E
:101FA00002FA03F3DA437B681B680A401A637B6812
:101FB0001B68196B3B681B689BB218463B685A68E4
:101FC00013469B001344233B00FA03F27B681B6813
:101FD0000A431A6323E07B681B68D96A3B685A6826
:101FE00013469B001344413B1F2202FA03F3DA43DA
:101FF0007B681B680A40DA627B681B68D96A3B68A9
:102000001B689BB218463B685A6813469B001344F2
:10201000413B00FA03F27B681B680A43DA62294BF2
:10202000FB607B681B68284A93420FD13B681B68A2
:10203000122B0BD1FB685B6823F40002FB685A602B
:10204000FB685B6843F48002FB685A607B681B682E
:102050001D4A93422BD13B681B681C4A934203D014
:102060003B681B68112B22D1FB685B6823F480025C
:10207000FB685A60FB685B6843F40002FB685A60C7
:102080003B681B68114A934211D1114B1B68114ADE
:10209000A2FB03239A0C13469B0013445B00BB6016
:1020A00002E0BB68013BBB60BB68002BF9D17B68D9
:1020B000002283F83C20002318461437BD465DF803
:1020C000047B7047002301400020014012000010F3
:1020D0000400002083DE1B4380B485B000AF78602D
:1020E000794BFB60FB685B6823F44032FB685A6005
:1020F000FB685A687B685B681A43FB685A607B68B8
:102100001B685A687B681B6822F480725A607B687F
:102110001B6859687B681B691A027B681B680A4345
:102120005A607B681B685A687B681B6822F04072A3
:102130005A607B681B6859687B689A687B681B6873
:102140000A435A607B681B689A687B681B6822F4A4
:1021500000629A607B681B6899687B68DA687B68B4
:102160001B680A439A607B689B6A584A934222D054
:102170007B681B689A687B681B6822F070629A60B3
:102180007B681B6899687B689A6A7B681B680A434E
:102190009A607B681B689A687B681B6822F04052D3
:1021A0009A607B681B6899687B68DA6A7B681B6841
:1021B0000A439A600FE07B681B689A687B681B681B
:1021C00022F070629A607B681B689A687B681B6863
:1021D00022F040529A607B681B689A687B681B6893
:1021E00022F002029A607B681B6899687B681B7EFC
:1021F0005A007B681B680A439A607B6893F820301A
:10220000002B1BD07B681B685A687B681B6842F4F4
:1022100000625A607B681B685A687B681B6822F4FE
:1022200060425A607B681B6859687B685B6A013B47
:102230005A037B681B680A435A6007E07B681B6887
:102240005A687B681B6822F400625A607B681B68CE
:10225000DA6A7B681B6822F47002DA627B681B68AA
:10226000D96A7B68DB69013B1A057B681B680A43F6
:10227000DA627B681B689A687B681B6822F40072CC
:102280009A607B681B6899687B6893F830305A02C3
:102290007B681B680A439A607B681B689A687B6846
:1022A0001B6822F480629A607B681B6899687B686F
:1022B0005B699A027B681B680A439A6000BF143707
:1022C000BD465DF8047B7047002301400100000F0C
:1022D00080B485B000AF78607B6803F00703FB60D3
:1022E0000C4BDB68BB60BA684FF6FF031340BB6062
:1022F000FB681A02BB68134343F0BF6343F4003327
:10230000BB60044ABB68D36000BF1437BD465DF8AC
:10231000047B704700ED00E080B400AF044BDB6845
:102320001B0A03F007031846BD465DF8047B70479F
:1023300000ED00E080B483B000AF03463960FB716C
:1023400097F90730002B0ADB3B68DAB20C4997F9A2
:1023500007301201D2B20B4483F800230AE03B6835
:10236000DAB20849FB7903F00F03043B1201D2B241
:102370000B441A7600BF0C37BD465DF8047B7047EE
:1023800000E100E000ED00E080B489B000AFF8604B
:10239000B9607A60FB6803F00703FB61FB69C3F176
:1023A0000703042B28BF0423BB61FB690433062BFE
:1023B00002D9FB69033B00E000237B614FF0FF3251
:1023C000BB6902FA03F3DA43BB681A407B699A409F
:1023D0004FF0FF317B6901FA03F3D9437B680B406F
:1023E000134318462437BD465DF8047B7047000050
:1023F00080B582B000AF78607B68013BB3F1807F2D
:1024000001D301230FE00A4A7B68013B53600F218F
:102410004FF0FF30FFF78EFF054B00229A60044B10
:1024200007221A60002318460837BD4680BD00BF4A
:1024300010E000E080B582B000AF78607868FFF708
:1024400047FF00BF0837BD4680BD80B586B000AFEE
:102450000346B9607A60FB7300237B61FFF75CFF82
:1024600078617A68B9687869FFF78EFF024697F954
:102470000F3011461846FFF75DFF00BF1837BD4605
:1024800080BD80B582B000AF78607868FFF7B0FF9C
:10249000034618460837BD4680BD000080B489B0A9
:1024A00000AF7860396000237B6100233B6100232B
:1024B000BB610023FB6159E10122FB6902FA03F3CE
:1024C0007B613B681B687A6913403B613A697B69B1
:1024D0009A4240F048813B685B6803F00303012B9C
:1024E00005D03B685B6803F00303022B30D17B68A7
:1024F0009B68BB61FB695B00032202FA03F3DB43C9
:10250000BA691340BB613B68DA68FB695B0002FA99
:1025100003F3BA691343BB617B68BA699A607B684D
:102520005B68BB610122FB6902FA03F3DB43BA6912
:102530001340BB613B685B681B0903F00102FB6948
:1025400002FA03F3BA691343BB617B68BA695A6044
:102550003B685B6803F00303032B17D07B68DB68E1
:10256000BB61FB695B00032202FA03F3DB43BA6938
:102570001340BB613B689A68FB695B0002FA03F396
:10258000BA691343BB617B68BA69DA603B685B6810
:1025900003F00303022B23D1FB69DA087B680832BE
:1025A00053F82230BB61FB6903F007039B000F2245
:1025B00002FA03F3DB43BA691340BB613B681A6953
:1025C000FB6903F007039B0002FA03F3BA691343A4
:1025D000BB61FB69DA087B680832B96943F82210ED
:1025E0007B681B68BB61FB695B00032202FA03F393
:1025F000DB43BA691340BB613B685B6803F00302CD
:10260000FB695B0002FA03F3BA691343BB617B68A1
:10261000BA691A603B685B6803F44033002B00F032
:10262000A2800023FB60574B5B6C564A43F4804307
:102630005364544B5B6C03F48043FB60FB68524A69
:10264000FB699B08023352F82330BB61FB6903F03E
:1026500003039B000F2202FA03F3DB43BA69134022
:10266000BB617B68494A934219D07B68484A9342D0
:1026700013D07B68474A93420DD07B68464A934209
:1026800007D07B68454A934201D1042308E0072321
:1026900006E0032304E0022302E0012300E000231C
:1026A000FA6902F0030292009340BA691343BB61D6
:1026B0003549FB699B080233BA6941F82320384B3E
:1026C0009B68BB613B69DB43BA691340BB613B68F4
:1026D0005B6803F48013002B03D0BA693B69134392
:1026E000BB612F4ABB6993602D4BDB68BB613B69C3
:1026F000DB43BA691340BB613B685B6803F40013BA
:10270000002B03D0BA693B691343BB61244ABB6900
:10271000D360234B5B68BB613B69DB43BA69134001
:10272000BB613B685B6803F40033002B03D0BA69DC
:102730003B691343BB611A4ABB695360184B1B6862
:10274000BB613B69DB43BA691340BB613B685B68B3
:1027500003F48033002B03D0BA693B691343BB6198
:102760000F4ABB691360FB690133FB61FB690F2BE7
:102770007FF6A2AE00BF00BF2437BD465DF8047BE4
:10278000704700BF0038024000380140000002409E
:102790000004024000080240000C02400010024009
:1027A000003C014080B485B000AF78600B467B8070
:1027B0007B681A697B881340002B02D00123FB73CE
:1027C00001E00023FB73FB7B18461437BD465DF820
:1027D000047B704780B584B000AF78607B68002BC5
:1027E00001D101232BE17B6893F83D30DBB2002B54
:1027F00006D17B68002283F83C207868FEF794FEBF
:102800007B68242283F83D207B681B681A687B68FC
:102810001B6822F001021A607B681B681A687B68DB
:102820001B6842F400421A607B681B681A687B6868
:102830001B6822F400421A6001F09AF8F8607B6885
:102840005B68814A934207D8FB68804A934294BFF1
:1028500001230023DBB206E0FB687D4A934294BF6C
:1028600001230023DBB2002B01D00123E7E0FB684A
:10287000784AA2FB03239B0CBB607B681B685B68E8
:1028800023F03F017B681B68BA680A435A607B6883
:102890001B681B6A23F03F017B685B686A4A9342AE
:1028A00002D8BB68013309E0BB684FF4967202FBA3
:1028B00003F3694AA2FB03239B0901337A68126878
:1028C0000B4313627B681B68DB6923F44F4222F0E1
:1028D000FF027B685B685C498B4219D8FB68591E14
:1028E0007B685B685B00B1FBF3F3591C40F6FC733B
:1028F0000B40002B0AD0FB68591E7B685B685B00AD
:10290000B1FBF3F30133C3F30B0351E004234FE0B6
:102910007B689B68002B11D1FB68581E7B68596847
:102920000B465B000B44B0FBF3F30133C3F30B0323
:10293000002B0CBF01230023DBB212E0FB68581E02
:102940007B6859680B469B000B4499000B44B0FB15
:10295000F3F30133C3F30B03002B0CBF012300235C
:10296000DBB2002B01D0012322E07B689B68002BA7
:102970000ED1FB68581E7B6859680B465B000B4400
:10298000B0FBF3F30133C3F30B0343F400430FE055
:10299000FB68581E7B6859680B469B000B449900E6
:1029A0000B44B0FBF3F30133C3F30B0343F4404395
:1029B000796809681343CB617B681B681B6823F047
:1029C000C0017B68DA697B681B6A1A437B681B68F5
:1029D0000A431A607B681B689B6823F4034323F057
:1029E000FF037A6811697A68D26811437A681268BD
:1029F0000B4393607B681B68DB6823F0FF017B68F7
:102A00005A697B689B691A437B681B680A43DA60D2
:102A10007B681B681A687B681B6842F001021A60B9
:102A20007B6800221A647B68202283F83D207B6843
:102A300000221A637B68002283F83E200023184698
:102A40001037BD4680BD00BFA08601007F841E00F8
:102A5000FF083D0083DE1B43D34D621080B588B074
:102A600002AFF8607A601A460B467B8113463B81C1
:102A7000FFF740F87861FB6893F83D30DBB2202B1C
:102A800040F0E0807B690093192301227049F868C7
:102A900000F064F90346002B01D00223D3E0FB6869
:102AA00093F83C30012B01D10223CCE0FB680122DA
:102AB00083F83C20FB681B681B6803F00103012BB3
:102AC00007D0FB681B681A68FB681B6842F00102AC
:102AD0001A60FB681B681A68FB681B6822F40062B6
:102AE0001A60FB68212283F83D20FB68102283F8DE
:102AF0003E20FB6800221A64FB687A685A62FB6811
:102B00003A895A85FB685B8D9AB2FB681A85FB6827
:102B1000504ADA6279897B693A6AF86800F09CF871
:102B20000346002B01D001238DE000233B61FB68AD
:102B30001B685B693B61FB681B689B693B613B6988
:102B400066E07A69396AF86800F022FA0346002BD9
:102B50000DD0FB681B6C042B07D1FB681B681A683F
:102B6000FB681B6842F400721A6001236BE0FB688B
:102B70005B6A1A78FB681B681A61FB685B6A5A1CFF
:102B8000FB685A62FB685B8D9BB2013B9AB2FB68A3
:102B90005A85FB681B8D013B9AB2FB681A85FB685E
:102BA0001B685B6903F00403042B1BD1FB681B8DBE
:102BB000002B17D0FB685B6A1A78FB681B681A61E8
:102BC000FB685B6A5A1CFB685A62FB685B8D9BB2B0
:102BD000013B9AB2FB685A85FB681B8D013B9AB298
:102BE000FB681A857A69396AF86800F019FA0346B1
:102BF000002B0DD0FB681B6C042B07D1FB681B68F6
:102C00001A68FB681B6842F400721A6001231AE01C
:102C1000FB681B8D002B94D1FB681B681A68FB684E
:102C20001B6842F400721A60FB68202283F83D2082
:102C3000FB68002283F83E20FB68002283F83C20DA
:102C4000002300E0022318461837BD4680BD00BFB0
:102C5000020010000000FFFF80B588B002AFF860EE
:102C60007A603B600B467B81FB68DB6A7B617B693A
:102C7000082B06D07B69012B03D07B6913F5803FBD
:102C800008D1FB681B681A68FB681B6842F48072F5
:102C90001A600BE0FB681B6B122B07D1FB681B68EB
:102CA0001A68FB681B6842F480721A603B680093E4
:102CB0007B6800224FF00111F86800F04FF80346DE
:102CC000002B0DD0FB681B681B6803F48073B3F501
:102CD000807F03D1FB684FF400721A64032335E050
:102CE000FB681B69B3F5804F08D17B89DBB21A46BC
:102CF000FB681B6802F0FE021A611BE07B89DB1196
:102D0000DBB203F00603DBB263F00F03DAB2FB6859
:102D10001B681A613B687A680E49F86800F098F8F9
:102D20000346002B01D0012310E07B89DAB2FB6857
:102D30001B681A613B687A680749F86800F088F8F0
:102D40000346002B01D0012300E00023184618376A
:102D5000BD4680BD080001000200010080B584B0BE
:102D600000AFF860B9603B601346FB7148E03B6818
:102D7000B3F1FF3F44D0FEF7BDFE0246BB69D31A54
:102D80003A689A4202D33B68002B39D1BB681B0CCE
:102D9000DBB2012B0DD1FB681B685B69DA43BB68B2
:102DA00013409BB2002B0CBF01230023DBB21A4659
:102DB0000CE0FB681B689B69DA43BB6813409BB25D
:102DC000002B0CBF01230023DBB21A46FB799A4289
:102DD00016D1FB6800221A63FB68202283F83D208D
:102DE000FB68002283F83E20FB681B6C43F0200246
:102DF000FB681A64FB68002283F83C20012323E06F
:102E0000BB681B0CDBB2012B0DD1FB681B685B6937
:102E1000DA43BB6813409BB2002B0CBF0123002395
:102E2000DBB21A460CE0FB681B689B69DA43BB689F
:102E300013409BB2002B0CBF01230023DBB21A46C8
:102E4000FB799A4293D0002318461037BD4680BDC7
:102E500080B584B000AFF860B9607A603B6071E023
:102E6000FB681B685B6903F48063B3F5806F23D153
:102E7000FB681B681A68FB681B6842F400721A60E2
:102E8000FB681B686FF480625A61FB6800221A635A
:102E9000FB68202283F83D20FB68002283F83E2057
:102EA000FB681B6C43F00402FB681A64FB68002299
:102EB00083F83C20012367E07B68B3F1FF3F41D0FA
:102EC000FEF718FE02463B68D31A7A689A4202D38C
:102ED0007B68002B36D1BB681B0CDBB2012B0CD1FD
:102EE000FB681B685B69DA43BB6813409BB2002B2D
:102EF00014BF01230023DBB20BE0FB681B689B6956
:102F0000DA43BB6813409BB2002B14BF012300239C
:102F1000DBB2002B16D0FB6800221A63FB6820226C
:102F200083F83D20FB68002283F83E20FB681B6C81
:102F300043F02002FB681A64FB68002283F83C20FF
:102F4000012321E0BB681B0CDBB2012B0CD1FB6819
:102F50001B685B69DA43BB6813409BB2002B14BF4C
:102F600001230023DBB20BE0FB681B689B69DA439B
:102F7000BB6813409BB2002B14BF01230023DBB2BC
:102F8000002B7FF46DAF002318461037BD4680BD7F
:102F900080B584B000AFF860B9607A6034E0F8685A
:102FA00000F086F80346002B01D0012334E0BB6813
:102FB000B3F1FF3F28D0FEF79DFD02467B68D31A90
:102FC000BA689A4202D3BB68002B1DD1FB681B680C
:102FD0005B6903F08003802B16D0FB6800221A6324
:102FE000FB68202283F83D20FB68002283F83E2006
:102FF000FB681B6C43F02002FB681A64FB6800222C
:1030000083F83C20012307E0FB681B685B6903F041
:103010008003802BC3D1002318461037BD4680BDE6
:1030200080B584B000AFF860B9607A6034E0F868C9
:1030300000F03EF80346002B01D0012334E0BB68CA
:10304000B3F1FF3F28D0FEF755FD02467B68D31A47
:10305000BA689A4202D3BB68002B1DD1FB681B687B
:103060005B6903F00403042B16D0FB6800221A638B
:10307000FB68202283F83D20FB68002283F83E2075
:10308000FB681B6C43F02002FB681A64FB6800229B
:1030900083F83C20012307E0FB681B685B6903F0B1
:1030A0000403042BC3D1002318461037BD4680BD4E
:1030B00080B483B000AF78607B681B685B6903F401
:1030C0008063B3F5806F1BD17B681B686FF48062EF
:1030D0005A617B6800221A637B68202283F83D20B6
:1030E0007B68002283F83E207B681B6C43F004025F
:1030F0007B681A647B68002283F83C20012300E08F
:10310000002318460C37BD465DF8047B704700006D
:1031100080B586B000AF78607B68002B01D10123B9
:1031200067E27B681B6803F00103002B75D0884BB6
:103130009B6803F00C03042B0CD0854B9B6803F0B9
:103140000C03082B12D1824B5B6803F48003B3F5A8
:10315000800F0BD17E4B1B6803F40033002B5BD038
:103160007B685B68002B57D1012342E27B685B6878
:10317000B3F5803F06D1764B1B68754A43F4803324
:1031800013601DE07B685B68B3F5A02F0CD1704B1A
:103190001B686F4A43F4802313606D4B1B686C4AB5
:1031A00043F4803313600BE0694B1B68684A23F4D7
:1031B00080331360664B1B68654A23F480231360D9
:1031C0007B685B68002B13D0FEF794FC386108E045
:1031D000FEF790FC02463B69D31A642B01D9032306
:1031E00007E25B4B1B6803F40033002BF0D014E0C4
:1031F000FEF780FC386108E0FEF77CFC02463B6984
:10320000D31A642B01D90323F3E1514B1B6803F458
:103210000033002BF0D100E000BF7B681B6803F097
:103220000203002B63D04A4B9B6803F00C03002B76
:103230000BD0474B9B6803F00C03082B1CD1444B6D
:103240005B6803F48003002B16D1414B1B6803F02D
:103250000203002B05D07B68DB68012B01D0012322
:10326000C7E13B4B1B6823F0F8027B681B69DB005E
:10327000374913430B603AE07B68DB68002B20D0B2
:10328000344B01221A60FEF735FC386108E0FEF786
:1032900031FC02463B69D31A022B01D90323A8E172
:1032A0002B4B1B6803F00203002BF0D0284B1B684C
:1032B00023F0F8027B681B69DB00254913430B6090
:1032C00015E0244B00221A60FEF714FC386108E078
:1032D000FEF710FC02463B69D31A022B01D90323E7
:1032E00087E11B4B1B6803F00203002BF0D17B68C6
:1032F0001B6803F00803002B36D07B685B69002B4A
:1033000016D0154B01221A60FEF7F4FB386108E075
:10331000FEF7F0FB02463B69D31A022B01D90323C7
:1033200067E10B4B5B6F03F00203002BF0D01BE057
:10333000094B00221A60FEF7DDFB38610EE0FEF754
:10334000D9FB02463B69D31A022B07D9032350E16C
:103350000038024000004742800E4742884B5B6FB6
:1033600003F00203002BEAD17B681B6803F004031F
:10337000002B00F097800023FB75814B1B6C03F042
:103380008053002B0FD10023BB607D4B1B6C7C4A0C
:1033900043F0805313647A4B1B6C03F08053BB6083
:1033A000BB680123FB75774B1B6803F48073002B0C
:1033B00018D1744B1B68734A43F480731360FEF793
:1033C00099FB386108E0FEF795FB02463B69D31A8A
:1033D000022B01D903230CE16A4B1B6803F48073B1
:1033E000002BF0D07B689B68012B06D1644B1B6FD0
:1033F000634A43F0010313671CE07B689B68052B5D
:103400000CD15F4B1B6F5E4A43F0040313675C4BA8
:103410001B6F5B4A43F0010313670BE0584B1B6FB4
:10342000574A23F001031367554B1B6F544A23F08F
:10343000040313677B689B68002B15D0FEF75AFBCB
:1034400038610AE0FEF756FB02463B69D31A41F2A7
:103450008832934201D90323CBE0494B1B6F03F021
:103460000203002BEED014E0FEF744FB38610AE0C3
:10347000FEF740FB02463B69D31A41F28832934281
:1034800001D90323B5E03E4B1B6F03F00203002B71
:10349000EED1FB7D012B05D1394B1B6C384A23F053
:1034A000805313647B689B69002B00F0A180344B30
:1034B0009B6803F00C03082B5CD07B689B69022B94
:1034C00041D1314B00221A60FEF714FB386108E04D
:1034D000FEF710FB02463B69D31A022B01D90323E6
:1034E00087E0274B1B6803F00073002BF0D17B684B
:1034F000DA697B681B6A1A437B685B6A9B011A4323
:103500007B689B6A5B08013B1B041A437B68DB6A90
:103510001B061B4913434B601B4B01221A60FEF72D
:10352000E9FA386108E0FEF7E5FA02463B69D31A8A
:10353000022B01D903235CE0114B1B6803F00073DD
:10354000002BF0D054E0104B00221A60FEF7D2FAA4
:10355000386108E0FEF7CEFA02463B69D31A022B27
:1035600001D9032345E0064B1B6803F00073002BD1
:10357000F0D13DE07B689B69012B07D1012338E046
:103580000038024000700040600047421B4B5B68FF
:10359000FB607B689B69012B28D0FB6803F48002E9
:1035A0007B68DB699A4221D1FB6803F03F027B68AC
:1035B0001B6A9A421AD1FA6847F6C07313407A68B8
:1035C000526A9201934211D1FB6803F440327B6846
:1035D0009B6A5B08013B1B049A4207D1FB6803F01E
:1035E00070627B68DB6A1B069A4201D0012300E00F
:1035F000002318461837BD4680BD00BF0038024082
:1036000080B584B000AF786039607B68002B01D151
:103610000123CCE0684B1B6803F007033A689A4229
:103620000CD9654B3A68D2B21A70634B1B6803F031
:1036300007033A689A4201D00123B8E07B681B680F
:1036400003F00203002B20D07B681B6803F0040307
:10365000002B05D0594B9B68584A43F4E0539360C4
:103660007B681B6803F00803002B05D0534B9B6855
:10367000524A43F460439360504B9B6823F0F0023E
:103680007B689B684D4913438B607B681B6803F024
:103690000103002B44D07B685B68012B07D1474BAB
:1036A0001B6803F40033002B19D101237FE07B68F2
:1036B0005B68022B03D07B685B68032B07D13F4B11
:1036C0001B6803F00073002B09D101236FE03B4B13
:1036D0001B6803F00203002B01D1012367E0374B85
:1036E0009B6823F003027B685B68344913438B605B
:1036F000FEF700FAF8600AE0FEF7FCF90246FB6804
:10370000D31A41F28832934201D903234FE02B4B65
:103710009B6803F00C027B685B689B009A42EBD1CC
:10372000254B1B6803F007033A689A420CD2224BE0
:103730003A68D2B21A70204B1B6803F007033A684C
:103740009A4201D0012332E07B681B6803F0040336
:10375000002B08D0194B9B6823F4E0527B68DB6890
:10376000164913438B607B681B6803F00803002B2A
:1037700009D0124B9B6823F460427B681B69DB0015
:103780000E4913438B6000F021F802460B4B9B68F7
:103790001B0903F00F030A49CB5C22FA03F3094A21
:1037A0001360094B1B681846FEF760F900231846A2
:1037B0001037BD4680BD00BF003C024000380240CB
:1037C0007043000804000020080000202DE9B04FDD
:1037D00090B000AF00237B630023FB6300233B63B7
:1037E0000023BB63594B9B6803F00C03082B0DD0DF
:1037F000082B00F2A180002B02D0042B03D09BE009
:10380000534BBB639BE0534BBB6398E04F4B5B68F0
:1038100003F03F037B634D4B5B6803F48003002B95
:1038200028D04A4B5B689B0900223B627A623B6A64
:10383000C3F308000021474B03FB01F2002300FB08
:1038400003F31344434AA0FB0212FA620A46BA6227
:10385000FA6A1344FB627B6B0022BB61FA61D7E911
:103860000623D7E90A01FDF729F902460B4613465C
:10387000FB6353E0354B5B689B0900223B617A6137
:103880003B69C3F3080A4FF0000B52465B464FF00A
:1038900000004FF00001590141EAD2615001024697
:1038A0000B46B2EB0A0863EB0B094FF000024FF036
:1038B00000034FEA891343EA98634FEA8812B2EB98
:1038C000080463EB09054FF000024FF00003EB0022
:1038D00043EA5473E20014461D4614EB0A033B60AE
:1038E00045EB0B037B604FF000024FF00003D7E97C
:1038F000004529468B02214643EA915321468A021C
:10390000104619467B6B0022BB60FA60D7E90223A0
:10391000FDF7D4F802460B461346FB630B4B5B687E
:103920001B0C03F0030301335B003B63FA6B3B6B3F
:10393000B2FBF3F3BB6302E0054BBB6300BFBB6BA1
:1039400018464037BD46BDE8B08F00BF0038024082
:103950000024F40040787D0180B400AF034B1B6865
:103960001846BD465DF8047B704700BF0400002088
:1039700080B500AFFFF7F0FF0246054B9B689B0A3E
:1039800003F007030349CB5C22FA03F3184680BD1A
:1039900000380240804300080CB430B5184B0C1EB0
:1039A0001D689DB008DA8B232B604FF0FF301DB0EF
:1039B000BDE8304002B070474FF40273ADF81430E8
:1039C0004FF000031B9314BF04F1FF33234604930D
:1039D00007934FF6FF7302900690ADF81630209AC9
:1039E00021AB02A92846019300F094F9431CBCBF07
:1039F0008B232B60002CDAD0029B00221A70D6E7B2
:103A00001000002002440346934200D1704703F89F
:103A1000011BF9E7014B1868704700BF1000002038
:103A200070B50D4D0D4C641BA4100026A64209D1A3
:103A30000B4D0C4C00F064FC641BA4100026A64245
:103A400005D170BD55F8043B98470136EEE755F8AF
:103A5000043B98470136F2E7C4430008C44300081A
:103A6000C4430008C84300087047704738B505468E
:103A7000002941D051F8043C0C1F002BB8BFE418BA
:103A800000F0E0F81D4A136833B9636014602846FB
:103A9000BDE8384000F0DCB8A34208D920682118FE
:103AA0008B4201BF19685B6809182160EDE71A466F
:103AB0005B680BB1A342FAD911685018A0420BD130
:103AC00020680144501883421160E0D118685B6897
:103AD000536008441060DAE702D90C232B60D6E764
:103AE000206821188B4204BF19685B68636004BFBB
:103AF000091821605460CAE738BD00BF8002002069
:103B000070B50F4E0C463168054611B900F0A4FBA4
:103B100030602146284600F09FFB431C03D14FF044
:103B2000FF34204670BDC41C24F00304A042F8D02A
:103B3000211A284600F090FB0130F2D1EFE700BFD8
:103B40007C0200202DE9F843CD1C25F00305083543
:103B50000C2D38BF0C25002D064601DBA94204D9E7
:103B60000C2333600020BDE8F883DFF8D48000F038
:103B700069F8D8F800301C4644BB29463046FFF7A8
:103B8000BFFF431C044658D1D8F800402746002FF9
:103B900043D1002C4BD023683946304604EB03094F
:103BA00000F05AFB814542D121686D1A2946304602
:103BB000FFF7A6FF01303AD023682B442360D8F8E2
:103BC00000305A6862BBC8F800700FE02268521BD0
:103BD00020D40B2A17D96119A342256018BF596058
:103BE000636808BFC8F8001062514B60304600F0AF
:103BF0002FF804F10B00231D20F00700C21A1CBF90
:103C00001B1AA350AFE76268A3420CBFC8F800209C
:103C10005A60EBE723466468AEE73C467F68B6E748
:103C20001A465B68A342FBD100235360DEE70C23F6
:103C30003360304600F00CF894E70560D6E700BF2B
:103C4000800200200148FFF70FBF00BF780200206C
:103C50000148FFF70ABF00BF780200202DE9F047B6
:103C60008E681F46BE420B6882460C4690462DD891
:103C7000B1F90C2012F4906F26D06569096905EB43
:103C80004505A3EB010905EBD5757B1C4B446D1075
:103C90009D4238BF1D46530527D52946FFF752FFE1
:103CA000064660B321694A4600F0E6FAA38923F488
:103CB000906343F08003A381266165614E44A5EBC8
:103CC00009052660A5603E46BE4200D93E462068F2
:103CD0003246414600F0A6FAA3689B1BA360236806
:103CE000334423600020BDE8F0872A4600F0D2FA72
:103CF00006460028E0D121695046FFF7B7FE0C23A5
:103D0000CAF80030A38943F04003A3814FF0FF308D
:103D1000E9E700002DE9F04F98468B891B069DB01E
:103D200007460D46144610D50B6973B94021FFF7BD
:103D300009FF2860286130B90C233B604FF0FF3049
:103D40001DB0BDE8F08F40236B6100230993202351
:103D50008DF82930CDF80C803023DFF89C818DF868
:103D60002A304FF0010923469A4613F8012B0AB175
:103D7000252AF9D1BAEB040B0BD05B462246294623
:103D80003846FFF76BFF013000F0A780099A5A44CC
:103D900009929AF80030002B00F09F8000234FF02A
:103DA000FF32CDE905230AF1010A049307938DF848
:103DB00053301A935446052214F8011B4E48FCF761
:103DC0000FFA049AD8B9D00644BF20238DF8533097
:103DD000110744BF2B238DF853309AF800302A2B5B
:103DE00015D0079A544600204FF00A0C214611F8CE
:103DF000013B303B092B4BD9B0B1079214E0A0EB4B
:103E0000080309FA03F313430493A246D2E7039B82
:103E1000191D1B680391002BBBBF5B4242F00202DD
:103E200007930793B8BF049223782E2B0AD16378A7
:103E30002A2B32D1039B1A1D1B68039243EAE373BA
:103E400002340593DFF8C0A0217803225046FCF726
:103E5000C7F938B1049BA0EB0A004022824013430B
:103E60000134049314F8011B24488DF8281006220D
:103E7000FCF7B6F9002836D0214B1BBB039B073358
:103E800023F0070308330393099B334409936AE73C
:103E90000CFB02320C460120A8E7002301340593F5
:103EA00019464FF00A0C204610F8012B303A092A27
:103EB00003D9002BC6D00591C4E70CFB01210446B1
:103EC0000123F0E703AB00932A460E4B04A93846C2
:103ED000AFF30080421C0646D6D1AB895B063FF5A6
:103EE0002DAF09982CE703AB00932A46054B04A994
:103EF000384600F079F8EDE788430008924300085F
:103F0000000000005D3C00088E4300082DE9F047EA
:103F1000164698468A680B69DDF820909342B8BF30
:103F20001346336091F8432007460C460AB101332B
:103F300033602368990642BF3368023333602568D3
:103F400015F0060506D104F1190AE36832689B1AD8
:103F5000AB4226DC94F843302268003B18BF0123B3
:103F600092062BD404F1430241463846C84701303B
:103F70001ED02368226903F00603042B02BFE56804
:103F80003368ED1AA3680CBF25EAE5750025934256
:103F9000C4BF9B1AED1800261A34B5421AD100206E
:103FA00008E00123524641463846C847013003D154
:103FB0004FF0FF30BDE8F0870135C6E7E1185A1C25
:103FC000302081F84300224494F8451082F84310D1
:103FD0000233C7E70123224641463846C84701302D
:103FE000E6D00136D9E700002DE9FF470F7E0C9E91
:103FF000782F914680460C469A4601F1430207D835
:10400000622F0AD8002F00F0D180582F00F0B8801E
:1040100004F1420684F842703AE0A7F16303152BDD
:10402000F6D801A151F823F081400008954000081E
:10403000114000081140000811400008114000081C
:104040009540000811400008114000081140000888
:104050001140000893410008BF4000084D4100088E
:104060001140000811400008B54100081140000847
:10407000BF400008114000081140000855410008E9
:1040800033681A1D1B68326004F1420684F842301E
:1040900001239CE033682068191D3160060601D5B4
:1040A0001D6803E04506FBD5B3F90050002D03DA87
:1040B0002D236D4284F8433058480A2311E02168CB
:1040C0003368080653F8045B02D4490648BFADB212
:1040D0006F2F5248336014BF0A230823002184F84D
:1040E00043106668A660002E05DB21682E4321F090
:1040F000040121604BD01646B5FBF3F103FB1157C9
:10410000C75D06F8017D2F46BB420D46F4D9082B4A
:104110000BD12368DF0708D5236961689942DEBFA8
:10412000302306F8013C06F1FF36921B2261CDF8E0
:1041300000A04B4603AA21464046FFF7E7FE0130A8
:104140004AD14FF0FF3004B0BDE8F087236843F058
:10415000200323603248782784F84570236831684B
:104160001F0651F8045B02D45F0648BFADB2316050
:10417000D90744BF43F0200323601DB11023ADE7EE
:104180002648E9E7236823F020032360F6E7164674
:10419000BDE7336825686169181D30602E061B680D
:1041A00001D5196002E06806FBD519800023236160
:1041B0001646BCE733681A1D32601E68626800212B
:1041C0003046FCF70DF808B1801B6060636823611E
:1041D000002384F84330AAE7236932464946404623
:1041E000D0470130ADD023689B0713D4E068039B10
:1041F0009842B8BF1846A6E70123324649464046D2
:10420000D04701309DD00135E36803995B1AAB427A
:10421000F2DCEBE7002504F11906F5E79943000805
:10422000AA430008884210B501EB020402D9844277
:10423000234607D8431EA14208D011F8012B03F8EA
:10424000012FF8E7024401468A4200D110BD13F85D
:10425000014D02F8014DF7E738B5064D002304463D
:1042600008462B60FDF788FA431C02D12B6803B186
:10427000236038BD740200200A44914200F1FF33EC
:1042800000D1704710B511F8014B03F8014F91426E
:10429000F9D110BD2DE9F041074614460D4621B96C
:1042A000BDE8F0411146FFF74DBC2AB9FFF7DEFB30
:1042B00025462846BDE8F08100F01AF884420646FB
:1042C00002D8B4EB500FF4D821463846FFF73AFC39
:1042D000804608B94546ECE7B4422246294628BF45
:1042E0003246FFF7C9FF29463846FFF7BFFBF1E723
:1042F00051F8043C181F002BBCBF0B58C018704766
:10430000F8B500BFF8BC08BC9E467047F8B500BFC2
:08431000F8BC08BC9E46704792
:104318002057656C636F6D65200000002050726542
:10432800737320504F5745522000000054656D703C
:104338003A2025326443000046616E3A20000000AE
:104348004F4E20004F4646005365742054656D70EB
:104358003A2025326443000055502F444F574E20D1
:1043680061646A75737400000000000000000000BA
:104378000102030406070809000000000102030403
:10438800232D302B2000686C4C0065666745464736
:1043980000303132333435363738394142434445B9
:1043A8004600303132333435363738396162636428
:0443B8006566000036
:0843BC0024BEFF7F0100000098
:0443C400C501000827
:0443C800A101000847
:1043CC00190000000024F40010000000010000009F
:1043DC0014000020000000003C010020A40100207B
:1043EC000C02002000000000000000000000000093
:1043FC0000000000000000000000000000000000B1
:10440C0000000000000000000000000000000000A0
:10441C000000000000000000000000000000000090
:0400000508001809CE
:00000001FF
